:100000000C9462000C948A000C948A000C948A0070
:100010000C948A000C948A000C948A000C948A0038
:100020000C948A000C948A000C948A000C948A0028
:100030000C948A000C948A000C948A000C948A0018
:100040000C9495010C948A000C948A000C948A00FC
:100050000C948A000C948A000C948A000C948A00F8
:100060000C948A000C948A000000000023002600F3
:10007000290000000000240027002A0000000000E2
:10008000250028002B0004040404040404040202D4
:100090000202020203030303030301020408102007
:1000A0004080010204081020010204081020000012
:1000B0000008000201000003040700000000000027
:1000C0000000CB0211241FBECFEFD8E0DEBFCDBFB2
:1000D00011E0A0E0B1E0EAE5F8E002C005900D9281
:1000E000A039B107D9F721E0A0E9B1E001C01D9224
:1000F000A33DB207E1F710E0C2E6D0E004C02197CB
:10010000FE010E942504C136D107C9F70E94DF0114
:100110000C942B040C940000833081F028F481307F
:1001200099F08230A1F008958730A9F08830B9F0B5
:100130008430D1F4809180008F7D03C08091800055
:100140008F7780938000089584B58F7702C084B53F
:100150008F7D84BD08958091B0008F7703C080911A
:10016000B0008F7D8093B00008951F93CF93DF93ED
:10017000282F30E0F901E255FF4F8491F901E6564E
:10018000FF4FD491F901EA57FF4FC491CC23C9F036
:10019000162F81110E948C00EC2FF0E0EE0FFF1F54
:1001A000E458FF4FA591B4918FB7F894111105C091
:1001B0009C91ED2FE095E92302C0EC91ED2BEC939F
:1001C0008FBFDF91CF911F910895CF93DF9390E080
:1001D000FC01E656FF4F2491FC01EA57FF4F849142
:1001E000882361F190E0880F991FFC01EE58FF4FC2
:1001F000C591D491FC01E458FF4FA591B4916111D0
:1002000009C09FB7F8948881209582238883EC9158
:100210002E230BC0623061F49FB7F8943881822F8F
:10022000809583238883EC912E2B2C939FBF06C04F
:100230008FB7F894E8812E2B28838FBFDF91CF9161
:1002400008950F931F93CF93DF93EC012881398199
:100250003327F901E255FF4F8491F901E656FF4F2C
:100260000491F901EA57FF4F14911123A1F0811174
:100270000E948C00E12FF0E0EE0FFF1FE859FF4FC6
:10028000A591B491EC91E02391E080E009F490E035
:10029000292F382F02C020E030E03D832C8321300D
:1002A000310529F481E04E815F81452B09F080E022
:1002B0003F832E83DF91CF911F910F9108950F936C
:1002C0001F93CF93DF93FC012281338124363105C4
:1002D00054F00E948C0324E630E040E050E00E949D
:1002E0009A03CB011DC0E9012196C230D105A4F0CB
:1002F0000E948C038E01DD0F220B330BA9019801A4
:1003000021503109410951090E949A03DC01CB01B6
:100310000196A11DB11D04C081E090E0A0E0B0E015
:10032000DF91CF911F910F9108951F920F920FB6F9
:100330000F9211242F933F938F939F93AF93BF936B
:100340008091950190919601A0919701B0919801AB
:100350003091940123E0230F2D3720F40196A11D45
:10036000B11D05C026E8230F0296A11DB11D2093E3
:1003700094018093950190939601A0939701B09377
:1003800098018091900190919101A0919201B0917A
:1003900093010196A11DB11D80939001909391014D
:1003A000A0939201B0939301BF91AF919F918F91D0
:1003B0003F912F910F900FBE0F901F90189578943A
:1003C00084B5826084BD84B5816084BD85B582605A
:1003D00085BD85B5816085BD80916E00816080930B
:1003E0006E00109281008091810082608093810074
:1003F0008091810081608093810080918000816084
:10040000809380008091B10084608093B1008091DE
:10041000B00081608093B00080917A008460809306
:100420007A0080917A00826080937A0080917A00CD
:10043000816080937A0080917A00806880937A004E
:100440001092C100CDE061E08C2F0E94E500CF5FEB
:10045000C431C9F761E08C2F0E94E500CF5FCB313A
:10046000C9F70AE010E02EE0B22E30E0E32E30E0D3
:10047000F32E2FB7F8948091950190919601A09159
:100480009701B09198012FBF893C9105A105B10555
:1004900008F444C08BEC91E00E942101882319F0FC
:1004A0008BEC91E035C081EC91E00E942101882322
:1004B00019F081EC91E02CC089EB91E00E942101C0
:1004C000882319F089EB91E023C081EB91E00E9431
:1004D0002101882319F081EB91E01AC089EA91E0AB
:1004E0000E942101882319F089EA91E011C081EA74
:1004F00091E00E942101882319F081EA91E008C06F
:1005000089E991E00E942101882341F089E991E085
:100510000E945F019093CA018093C9018091C90133
:100520009091CA01B8010E94FD034B01B89E600181
:10053000B99ED00C1124C0E0D0E0FE01EE0FFF1FE9
:10054000EC0DFD1DEC5FFE4F60818C2F835F0E94E0
:10055000B5002196C730D10581F7B89C6001B99CE0
:10056000D00C1124C0E0D0E0FE01EE0FFF1FEC0D17
:10057000FD1DEC5FFE4F60818C2F8C5E0E94B500EC
:100580002196C730D10581F7E114F10409F471CF48
:100590000E9400006ECF0F931F93CF93DF9360E014
:1005A00082E00E94E500EBECF1E082E090E09183D4
:1005B0008083C4E0D0E0D383C2831782168260E0D8
:1005C00083E00E94E500E1ECF1E083E090E09183BC
:1005D000808306E010E0138302831782168260E0B6
:1005E00084E00E94E500E9EBF1E0D183C083C8E03C
:1005F000D0E0D383C2831782168260E085E00E9438
:10060000E500E1EBF1E085E090E0918380838AE012
:1006100090E0938382831782168260E086E00E94D6
:10062000E500E9EAF1E0118300838CE090E0938338
:1006300082831782168260E087E00E94E500E1EA8B
:10064000F1E087E090E09183808384E190E0938300
:1006500082831782168260E088E00E94E500E9E963
:10066000F1E0D183C08384E690E093838283178294
:100670001682DF91CF911F910F9108958F929F92D3
:10068000AF92BF92CF92DF92EF92FF92CF93DF9320
:10069000EC01688179818A819B81611571058105F1
:1006A000910521F464E279ED8BE597E02DE133EFDC
:1006B00041E050E00E949A0349015A019B01AC01BC
:1006C000A7EAB1E40E94B9036B017C01ACEEB4EF80
:1006D000A50194010E94C703DC01CB018C0D9D1D77
:1006E000AE1DBF1DB7FF03C00197A109B0488883A5
:1006F0009983AA83BB83BC01CD019F77DF91CF9102
:10070000FF90EF90DF90CF90BF90AF909F908F9031
:1007100008950E943E03089580E091E00E943E0308
:1007200008956093000170930101809302019093FA
:1007300003010895052E97FB1EF400940E94B10357
:1007400057FD07D00E94CC0307FC03D04EF40C9455
:10075000B10350954095309521953F4F4F4F5F4FD6
:10076000089590958095709561957F4F8F4F9F4F1D
:1007700008950E94EE03A59F900DB49F900DA49F35
:10078000800D911D11240895B7FF0C94B9030E94A8
:10079000B903821B930B0895A1E21A2EAA1BBB1B5F
:1007A000FD010DC0AA1FBB1FEE1FFF1FA217B3073D
:1007B000E407F50720F0A21BB30BE40BF50B661F53
:1007C000771F881F991F1A9469F760957095809517
:1007D00090959B01AC01BD01CF010895A29FB0018E
:1007E000B39FC001A39F700D811D1124911DB29F65
:1007F000700D811D1124911D089597FB072E16F48D
:10080000009407D077FD09D00E94110407FC05D0A1
:100810003EF4909581959F4F0895709561957F4F17
:100820000895AA1BBB1B51E107C0AA1FBB1FA61737
:10083000B70710F0A61BB70B881F991F5A95A9F789
:1008400080959095BC01CD010895EE0FFF1F059096
:0A085000F491E02D0994F894FFCF15
:10085A000100000001000100010001000100010087
:10086A00000000000100010000000000000000007C
:10087A000100010000000100010000000100010068
:10088A000100010001000000000001000000010059
:10089A000100000000000100010001000000010049
:1008AA000100000001000100010000000100010038
:1008BA000100010001000100010001000000000028
:1008CA000000000001000100010001000100010018
:1008DA000100010001000100000000000100010008
:00000001FF
